:020000040800F2
:100000000050002071040008C1040008C104000869
:10001000C1040008C1040008C10400080000000079
:10002000000000000000000000000000C104000803
:10003000C104000800000000C1040008C104000859
:10004000C1040008C1040008C1040008C10400087C
:10005000C1040008C1040008C1040008C10400086C
:10006000C1040008C1040008C1040008C10400085C
:10007000C1040008C1040008C1040008C10400084C
:10008000C1040008C1040008C1040008C10400083C
:10009000C1040008C1040008C1040008C10400082C
:1000A000C1040008C1040008C1040008C10400081C
:1000B000C1040008C1040008C1040008C10400080C
:1000C000C1040008C1040008C1040008C1040008FC
:1000D000C1040008C1040008C1040008C1040008EC
:1000E000C1040008C104000800000000C1040008A9
:1000F000C1040008C1040008C1040008C1040008CC
:10010000C1040008C1040008C1040008C1040008BB
:10011000C1040008C1040008C1040008C1040008AB
:10012000C1040008C1040008C1040008C10400089B
:1001300010B5054C237833B9044B13B10448AFF321
:1001400000800123237010BD00000020000000008B
:100150000C05000808B5034B1BB103490348AFF376
:10016000008008BD00000000040000200C0500080D
:1001700080B582B000AF00F025F9114A3B4692E805
:1001800003001860043319800023FB80802000F0F6
:100190007DF8482000F0C8F8C02000F077F83B4612
:1001A000184600F033F94FF47A7000F044F901205A
:1001B00000F06CF84FF4FA7000F03DF900BFE5E78D
:1001C0002405000880B400AF2E4B9B692D4A43F0F4
:1001D000040393612C4B1B682B4A43F0010313600B
:1001E000294B1B68284A03F002031360264B1B6847
:1001F000254A43F010031360234B1B68224A03F087
:1002000020031360204B1B681F4A43F48073136064
:100210001D4B1B681C4A03F4007313601A4B1B68C8
:10022000194A43F480531360174B1B68164A03F4B2
:1002300000531360144B1B68134A43F4803313605C
:10024000114B1B68104A03F4003313600E4B1B68FC
:100250000D4A43F4801313600B4B1B680A4A03F4E6
:1002600000131360084B1B68074A43F08073136048
:10027000054B1B68044A03F00073136000BFBD46C2
:1002800080BC7047001002400008014080B582B079
:1002900000AF0346FB71FB791B09DBB2214A03F077
:1002A0000F03D3601F4BDB681E4A23F01003D3609B
:1002B0001C4BDB681B4A23F02003D360194BDB681F
:1002C000184A43F04003D360012000F0B4F8154B06
:1002D000DB68144A23F04003D360FB79114A03F032
:1002E0000F03D3600F4BDB680E4A23F01003D3607B
:1002F0000C4BDB680B4A23F02003D360094BDB680F
:10030000084A43F04003D360012000F094F8054B05
:10031000DB68044A23F04003D36000BF0837BD46C2
:1003200080BD00BF0008014080B582B000AF034629
:10033000FB71FB791B09DBB2214A03F00F03D36089
:100340001F4BDB681E4A43F01003D3601C4BDB6875
:100350001B4A23F02003D360194BDB68184A43F093
:100360004003D360012000F066F8154BDB68144AA7
:1003700023F04003D360FB79114A03F00F03D360ED
:100380000F4BDB680E4A43F01003D3600C4BDB6865
:100390000B4A23F02003D360094BDB68084A43F083
:1003A0004003D360012000F046F8054BDB68044AA7
:1003B00023F04003D36000BF0837BD4680BD00BFB7
:1003C0000008014080B500AFFFF7FCFE1E2000F0E2
:1003D00032F83020FFF75AFF0A2000F02CF83020C6
:1003E000FFF754FF012000F026F83020FFF74EFF02
:1003F0002820FFF74BFF0620FFF748FF0120FFF7FB
:1004000045FF0F20FFF742FF00BF80BD80B582B0DF
:1004100000AF786006E07B685A1C7A601B7818464B
:10042000FFF782FF7B681B78002BF4D100BF00BF71
:100430000837BD4680BD80B485B000AF78600DE060
:100440000023FB6002E0FB680133FB60FB6842F2C3
:100450000F729342F7DD7B68013B7B607B68002B6A
:10046000EEDC00BF00BF1437BD4680BC7047000003
:100470000D488546AFF300800C480D490D4A002316
:1004800002E0D458C4500433C4188C42F9D30A4A49
:100490000A4C002301E013600432A242FBD300F0B7
:1004A00011F8FFF765FEFEE7005000200000002075
:1004B0000000002034050008000000201C0000207F
:1004C000FEE7000070B500260C4D0D4C641BA41017
:1004D000A64209D100F01AF800260A4D0A4C641B06
:1004E000A410A64205D170BD55F8043B98470136CB
:1004F000EEE755F8043B98470136F2E72C05000873
:100500002C0500082C05000830050008F8B500BFD0
:10051000F8BC08BC9E467047F8B500BFF8BC08BCE4
:040520009E4670473C
:0805240048656C6C6F000000DB
:04052C00550100086D
:04053000310100088D
:04000005080004717A
:00000001FF
